:020000040000fa
:080000000002040000000000f2
:020000040000fa
:10040000cf90200000fd27000001880000000000c0
:100410000c00070080602000010020001100070090
:10042000000020000000e000020032000000020096
:1004300000000000ba020200000000000040da00e4
:100440000000fe004440a900a00220000000e000df
:100450000300320000002000a00188004440a800f2
:100460000000060091018800800078000000eb0089
:1004700015003700e280400032a0b4009101ba00bc
:10048000e280400032a0b4009102ba00e280400055
:1004900032a0b4000002eb00472bde00f507b200eb
:1004a000602ce10004003a000059eb008301e900f0
:1004b000fdff3e00040037006128e100010032002a
:1004c0000082eb00040007001101ba000200e00006
:1004d000e8ff3a00000006003159ba008301e90044
:1004e0000c0032002159ba008301e90008003200f3
:1004f0000400e00003003a00e280400032a0b400b3
:10050000f5ff370011d9ba008301e900faff3a007c
:100510008100e800e180400032a0b4000000060045
:020000040000fa
:0200000401f009
:04000c00f9ff0000f8
:020000040000fa
:0200000401f009
:04001000fbff0000f2
:020000040000fa
:0200000401f009
:040014007fff00006a
:020000040000fa
:100008002606000026060000260600002606000038
:100018002606000026060000260600002606000028
:100028002606000026060000260600002606000018
:100038002606000026060000260600002606000008
:10004800260600002606000026060000f20500002d
:10005800c00500002606000026060000260600004f
:1000680026060000260600002606000026060000d8
:1000780026060000260600002606000026060000c8
:1000880026060000260600002606000026060000b8
:1000980026060000260600002606000026060000a8
:1000a8002606000026060000260600002606000098
:1000b8002606000026060000260600002606000088
:1000c8002606000026060000260600002606000078
:1000d8002606000026060000260600002606000068
:1000e8002606000026060000260600002606000058
:1000f8002606000026060000260600002606000048
:100108002606000026060000260600002606000037
:100118002606000026060000260600002606000027
:100128002606000026060000260600002606000017
:100138002606000026060000260600002606000007
:1001480026060000260600002606000026060000f7
:1001580026060000260600002606000026060000e7
:1001680026060000260600002606000026060000d7
:1001780026060000260600002606000026060000c7
:1001880026060000260600002606000026060000b7
:1001980026060000260600002606000026060000a7
:1001a8002606000026060000260600002606000097
:1001b8002606000026060000260600002606000087
:1001c8002606000026060000260600002606000077
:1001d8002606000026060000260600002606000067
:1001e8002606000026060000260600002606000057
:0801f8002606000026060000a7
:020000040000fa
:100208002606000026060000260600002606000036
:100218002606000026060000260600002606000026
:100228002606000026060000260600002606000016
:100238002606000026060000260600002606000006
:10024800260600002606000026060000f20500002b
:10025800c00500002606000026060000260600004d
:1002680026060000260600002606000026060000d6
:1002780026060000260600002606000026060000c6
:1002880026060000260600002606000026060000b6
:1002980026060000260600002606000026060000a6
:1002a8002606000026060000260600002606000096
:1002b8002606000026060000260600002606000086
:1002c8002606000026060000260600002606000076
:1002d8002606000026060000260600002606000066
:1002e8002606000026060000260600002606000056
:1002f8002606000026060000260600002606000046
:100308002606000026060000260600002606000035
:100318002606000026060000260600002606000025
:100328002606000026060000260600002606000015
:100338002606000026060000260600002606000005
:1003480026060000260600002606000026060000f5
:1003580026060000260600002606000026060000e5
:1003680026060000260600002606000026060000d5
:1003780026060000260600002606000026060000c5
:1003880026060000260600002606000026060000b5
:1003980026060000260600002606000026060000a5
:1003a8002606000026060000260600002606000095
:1003b8002606000026060000260600002606000085
:1003c8002606000026060000260600002606000075
:1003d8002606000026060000260600002606000065
:1003e8002606000026060000260600002606000055
:0803f8002606000026060000a5
:020000040000fa
:10052000303100003233000034350000363700002f
:100530003839000016170000181900001a1b0000b7
:100540001c1d00001e1f00001011000012130000ef
:100550001415000005040000030200000100000063
:1005600006070000080900000a0b00000c0d00003f
:040570000e0f00006a
:020000040000fa
:100574000400fa000000eb00101688000000eb00f5
:10058400401688000000eb00701688000000eb00a5
:10059400a01688000000eb00d01688000000eb00d5
:1005a400001788000000eb00301788000000eb0003
:1005b400201688000000eb00501688000000eb00b5
:1005c400801688000000eb00b01688000000eb00e5
:1005d400e01688000000eb00101788000080eb0094
:1005e400001688000080eb00301688000080eb00c5
:1005f40060168800f0ff2700901688000080eb004a
:10060400c016880070ff2f00f01688000000eb0071
:10061400501988000000eb0060198800103a80002f
:10062400000178000210a000610420007005200081
:100634002374200081497800804978008249780039
:1006440081e0a800417420009140780000ceb300fe
:1006540000c0600044e7b700313a800000e02f009a
:1006640000806000e001b300303a880044c7bf0056
:10067400f043b20044e7b7000000eb00001188002b
:1006840010002000401188001122200091407800c1
:10069400c0cfb30000c060000014a00021e2b70086
:1006a40021e2a8002342a800a10a2000914078007a
:1006b40080cfb30000c060006040b300aae0b70080
:1006c400910a200091407800f0c8b30000c0600097
:1006d4000044a000a9e0b7009560a8000000eb006a
:1006e400001988000000eb00101988000000eb00de
:1006f400201988002183a8002143a800013220008a
:100704009140780000ceb30000c0700020e3b70031
:100714002043a8002132200091407800c0c3b300d8
:1007240000c0700022e3b70030c0b30024e3b70078
:10073400513220009140780000ceb30000c0600028
:100744006040b30025e3b700813220009140780077
:1007540000ceb30000c060006041b30028e3b700de
:1007640021e3a8000000eb00001c880000302000fa
:10077400401c8800f0002000501c8800d00020009d
:10078400101c8800007e2000201c880081e3a80043
:100794000000eb00200888000421a80010002000bd
:1007a400100888000000eb00000888008460a9009d
:1007b40005e1a8000228ef00d502ae000208a80057
:1007c400d522ae000228a800d542ae000248a800f7
:1007d400d562ae000268a800d402ae000288a80068
:1007e40084c0bf00684060000004e000fcff3200e9
:1007f4008460a90000ff83006101b80010ff83003a
:1008040001002000020140008381480020ff830092
:1008140001002000020140008381480030ff830072
:1008240001002000020140008381480040ff830052
:1008340001002000020140008381480050ff830032
:1008440001002000020140008381480060ff830012
:1008540001002000020140008381480070ff8300f2
:1008640001002000020140008381480080ff8300d2
:1008740001002000020140008381480090ff8300b2
:10088400010020000201400083814800a0ff830092
:10089400010020000201400083814800b0ff830072
:1008a400010020000201400083814800c0ff830052
:1008b400010020000201400083814800d0ff830032
:1008c400010020000201400083814800e0ff830012
:1008d400010020000201400083814800f0ff8300f2
:1008e400010020000200400083804800304088005e
:1008f4004140880030408000414080004c09dd00c8
:100904004400de0000007100c408de00504088008e
:1009140000c8bf008081fb005040800002712200ab
:10092400110009000280d8008000fd00823e2000f2
:10093400110009000280d8008000780000292800f6
:10094400008040001040780080407800c080200083
:1009540000804100014878000068ec0095c0bf00a9
:10096400704060000004e00002003a008580a800a6
:100974009580a80000c8bf008081fb005040800023
:10098400823e2000110009000280d8008000fd0092
:1009940042062000110009000280d800800078007f
:1009a4000029280000804000104078008040780032
:1009b400c080200000804100014878000068ec00fd
:1009c40095c0bf00704060000004e00002003a00df
:1009d4008580a8009580a80000c8bf008081fb0026
:1009e4005040800042062000110009000280d80017
:1009f4008000fd00a2002000110009000280d80040
:100a04008000780000292800008040001040780011
:100a140080407800c08020000080410001487800b8
:100a24000068ec0095c0bf00704060000004e00066
:100a340002003a008580a8009580a80000c8bf0085
:100a44008081fb0050408000a200200011000900ba
:100a54000280d8008000fd00800078000029280072
:100a6400008040001040780080407800c080200062
:100a740000804100014878000068ec0095c0bf0088
:100a8400704060000004e00002003a008580a80085
:100a94009580a80023408000130798001040800030
:100aa4008040eb00014f78001e019000800f510040
:100ab4000200390013c0b300034f78009e00900079
:100ac4000100e800204088001e4178000204e00094
:100ad4001000320000c8bf008080fb00c0802000ee
:100ae40080804000d0c0b300804878000068ec00eb
:100af40095c0bf00704060000004e00002003a00ae
:100b04008580a8009580a8000000eb0020408800a4
:100b14000d00370000c8bf008080fb00c0802000ab
:100b240080804000c0c2b300804878000068ec00b8
:100b340095c0bf00704060000004e00002003a006d
:100b44008580a8009580a80021408000a029280065
:100b540000804000104078007f4060007f416000ca
:100b6400813220009140780000ceb30000c06000c4
:100b74000240700028e3b7000eff3700809fbe00dc
:100b84003400f80000002000a00188000000fa00f2
:100b94008580a900118020009140780000c8bf0022
:100ba40080cf50000900320001c8bf008080fb00e4
:100bb400c080200000804000104078000080fb00ce
:100bc400201188000168ec00010037009580a9001d
:100bd4000080fa003400f9004f00be000040060017
:100be4003400f800881f780008002000a80188005d
:100bf4004f0478000000fa002682bf008560a90037
:0c0c04000080fa003400f90000400600f7
:020000040000fa
:100c10000c080000000100000000000000080000b7
:100c200006000000020000000000000000000000bc
:100c3000e07f000020000000000000000608000027
:0c0c4000060000000000000000000000a2
:020000040000fa
:040c4c000000fe00a6
:00000001FF
